{
	"contracts/operators.sol": {
		"operators": {
			"abi": [
				{
					"inputs": [],
					"name": "operation",
					"outputs": [],
					"stateMutability": "nonpayable",
					"type": "function"
				}
			],
			"devdoc": {
				"kind": "dev",
				"methods": {},
				"version": 1
			},
			"evm": {
				"assembly": "    /* \"contracts/operators.sol\":70:309  contract operators {... */\n  mstore(0x40, 0x80)\n    /* \"contracts/operators.sol\":104:106  10 */\n  0x0a\n    /* \"contracts/operators.sol\":96:106  int y = 10 */\n  0x00\n  sstore\n    /* \"contracts/operators.sol\":122:123  7 */\n  0x07\n    /* \"contracts/operators.sol\":113:123  uint x = 7 */\n  0x01\n  sstore\n    /* \"contracts/operators.sol\":70:309  contract operators {... */\n  callvalue\n  dup1\n  iszero\n  tag_1\n  jumpi\n  0x00\n  dup1\n  revert\ntag_1:\n  pop\n  dataSize(sub_0)\n  dup1\n  dataOffset(sub_0)\n  0x00\n  codecopy\n  0x00\n  return\nstop\n\nsub_0: assembly {\n        /* \"contracts/operators.sol\":70:309  contract operators {... */\n      mstore(0x40, 0x80)\n      callvalue\n      dup1\n      iszero\n      tag_1\n      jumpi\n      0x00\n      dup1\n      revert\n    tag_1:\n      pop\n      jumpi(tag_2, lt(calldatasize, 0x04))\n      shr(0xe0, calldataload(0x00))\n      dup1\n      0x775fc127\n      eq\n      tag_3\n      jumpi\n    tag_2:\n      0x00\n      dup1\n      revert\n        /* \"contracts/operators.sol\":130:306  function operation() public {... */\n    tag_3:\n      tag_4\n      tag_5\n      jump\t// in\n    tag_4:\n      stop\n    tag_5:\n        /* \"contracts/operators.sol\":177:178  7 */\n      0x07\n        /* \"contracts/operators.sol\":173:174  x */\n      sload(0x01)\n        /* \"contracts/operators.sol\":173:178  x + 7 */\n      tag_7\n      swap2\n      swap1\n      tag_8\n      jump\t// in\n    tag_7:\n        /* \"contracts/operators.sol\":169:170  x */\n      0x01\n        /* \"contracts/operators.sol\":169:178  x = x + 7 */\n      dup2\n      swap1\n      sstore\n      pop\n        /* \"contracts/operators.sol\":197:198  7 */\n      0x07\n        /* \"contracts/operators.sol\":193:194  x */\n      sload(0x01)\n        /* \"contracts/operators.sol\":193:198  x / 7 */\n      tag_9\n      swap2\n      swap1\n      tag_10\n      jump\t// in\n    tag_9:\n        /* \"contracts/operators.sol\":189:190  x */\n      0x01\n        /* \"contracts/operators.sol\":189:198  x = x / 7 */\n      dup2\n      swap1\n      sstore\n      pop\n        /* \"contracts/operators.sol\":217:218  7 */\n      0x07\n        /* \"contracts/operators.sol\":213:214  x */\n      sload(0x01)\n        /* \"contracts/operators.sol\":213:218  x * 7 */\n      tag_11\n      swap2\n      swap1\n      tag_12\n      jump\t// in\n    tag_11:\n        /* \"contracts/operators.sol\":209:210  x */\n      0x01\n        /* \"contracts/operators.sol\":209:218  x = x * 7 */\n      dup2\n      swap1\n      sstore\n      pop\n        /* \"contracts/operators.sol\":237:238  7 */\n      0x07\n        /* \"contracts/operators.sol\":233:234  x */\n      sload(0x01)\n        /* \"contracts/operators.sol\":233:238  x - 7 */\n      tag_13\n      swap2\n      swap1\n      tag_14\n      jump\t// in\n    tag_13:\n        /* \"contracts/operators.sol\":229:230  x */\n      0x01\n        /* \"contracts/operators.sol\":229:238  x = x - 7 */\n      dup2\n      swap1\n      sstore\n      pop\n        /* \"contracts/operators.sol\":253:254  x */\n      0x01\n      0x00\n        /* \"contracts/operators.sol\":253:257  x -- */\n      dup2\n      sload\n      dup1\n      swap3\n      swap2\n      swap1\n      tag_15\n      swap1\n      tag_16\n      jump\t// in\n    tag_15:\n      swap2\n      swap1\n      pop\n      sstore\n        /* \"contracts/operators.sol\":249:250  x */\n      0x01\n        /* \"contracts/operators.sol\":249:257  x = x -- */\n      dup2\n      swap1\n      sstore\n      pop\n        /* \"contracts/operators.sol\":273:274  x */\n      0x01\n      0x00\n        /* \"contracts/operators.sol\":273:277  x ++ */\n      dup2\n      sload\n      dup1\n      swap3\n      swap2\n      swap1\n      tag_17\n      swap1\n      tag_18\n      jump\t// in\n    tag_17:\n      swap2\n      swap1\n      pop\n      sstore\n        /* \"contracts/operators.sol\":269:270  x */\n      0x01\n        /* \"contracts/operators.sol\":269:277  x = x ++ */\n      dup2\n      swap1\n      sstore\n      pop\n        /* \"contracts/operators.sol\":297:298  7 */\n      0x07\n        /* \"contracts/operators.sol\":293:294  x */\n      sload(0x01)\n        /* \"contracts/operators.sol\":293:298  x % 7 */\n      tag_19\n      swap2\n      swap1\n      tag_20\n      jump\t// in\n    tag_19:\n        /* \"contracts/operators.sol\":289:290  x */\n      0x01\n        /* \"contracts/operators.sol\":289:298  x = x % 7 */\n      dup2\n      swap1\n      sstore\n      pop\n        /* \"contracts/operators.sol\":130:306  function operation() public {... */\n      jump\t// out\n        /* \"#utility.yul\":7:84   */\n    tag_21:\n        /* \"#utility.yul\":44:51   */\n      0x00\n        /* \"#utility.yul\":73:78   */\n      dup2\n        /* \"#utility.yul\":62:78   */\n      swap1\n      pop\n        /* \"#utility.yul\":7:84   */\n      swap2\n      swap1\n      pop\n      jump\t// out\n        /* \"#utility.yul\":90:270   */\n    tag_22:\n        /* \"#utility.yul\":138:215   */\n      0x4e487b7100000000000000000000000000000000000000000000000000000000\n        /* \"#utility.yul\":135:136   */\n      0x00\n        /* \"#utility.yul\":128:216   */\n      mstore\n        /* \"#utility.yul\":235:239   */\n      0x11\n        /* \"#utility.yul\":232:233   */\n      0x04\n        /* \"#utility.yul\":225:240   */\n      mstore\n        /* \"#utility.yul\":259:263   */\n      0x24\n        /* \"#utility.yul\":256:257   */\n      0x00\n        /* \"#utility.yul\":249:264   */\n      revert\n        /* \"#utility.yul\":276:467   */\n    tag_8:\n        /* \"#utility.yul\":316:319   */\n      0x00\n        /* \"#utility.yul\":335:355   */\n      tag_28\n        /* \"#utility.yul\":353:354   */\n      dup3\n        /* \"#utility.yul\":335:355   */\n      tag_21\n      jump\t// in\n    tag_28:\n        /* \"#utility.yul\":330:355   */\n      swap2\n      pop\n        /* \"#utility.yul\":369:389   */\n      tag_29\n        /* \"#utility.yul\":387:388   */\n      dup4\n        /* \"#utility.yul\":369:389   */\n      tag_21\n      jump\t// in\n    tag_29:\n        /* \"#utility.yul\":364:389   */\n      swap3\n      pop\n        /* \"#utility.yul\":412:413   */\n      dup3\n        /* \"#utility.yul\":409:410   */\n      dup3\n        /* \"#utility.yul\":405:414   */\n      add\n        /* \"#utility.yul\":398:414   */\n      swap1\n      pop\n        /* \"#utility.yul\":433:436   */\n      dup1\n        /* \"#utility.yul\":430:431   */\n      dup3\n        /* \"#utility.yul\":427:437   */\n      gt\n        /* \"#utility.yul\":424:460   */\n      iszero\n      tag_30\n      jumpi\n        /* \"#utility.yul\":440:458   */\n      tag_31\n      tag_22\n      jump\t// in\n    tag_31:\n        /* \"#utility.yul\":424:460   */\n    tag_30:\n        /* \"#utility.yul\":276:467   */\n      swap3\n      swap2\n      pop\n      pop\n      jump\t// out\n        /* \"#utility.yul\":473:653   */\n    tag_23:\n        /* \"#utility.yul\":521:598   */\n      0x4e487b7100000000000000000000000000000000000000000000000000000000\n        /* \"#utility.yul\":518:519   */\n      0x00\n        /* \"#utility.yul\":511:599   */\n      mstore\n        /* \"#utility.yul\":618:622   */\n      0x12\n        /* \"#utility.yul\":615:616   */\n      0x04\n        /* \"#utility.yul\":608:623   */\n      mstore\n        /* \"#utility.yul\":642:646   */\n      0x24\n        /* \"#utility.yul\":639:640   */\n      0x00\n        /* \"#utility.yul\":632:647   */\n      revert\n        /* \"#utility.yul\":659:844   */\n    tag_10:\n        /* \"#utility.yul\":699:700   */\n      0x00\n        /* \"#utility.yul\":716:736   */\n      tag_34\n        /* \"#utility.yul\":734:735   */\n      dup3\n        /* \"#utility.yul\":716:736   */\n      tag_21\n      jump\t// in\n    tag_34:\n        /* \"#utility.yul\":711:736   */\n      swap2\n      pop\n        /* \"#utility.yul\":750:770   */\n      tag_35\n        /* \"#utility.yul\":768:769   */\n      dup4\n        /* \"#utility.yul\":750:770   */\n      tag_21\n      jump\t// in\n    tag_35:\n        /* \"#utility.yul\":745:770   */\n      swap3\n      pop\n        /* \"#utility.yul\":789:790   */\n      dup3\n        /* \"#utility.yul\":779:814   */\n      tag_36\n      jumpi\n        /* \"#utility.yul\":794:812   */\n      tag_37\n      tag_23\n      jump\t// in\n    tag_37:\n        /* \"#utility.yul\":779:814   */\n    tag_36:\n        /* \"#utility.yul\":836:837   */\n      dup3\n        /* \"#utility.yul\":833:834   */\n      dup3\n        /* \"#utility.yul\":829:838   */\n      div\n        /* \"#utility.yul\":824:838   */\n      swap1\n      pop\n        /* \"#utility.yul\":659:844   */\n      swap3\n      swap2\n      pop\n      pop\n      jump\t// out\n        /* \"#utility.yul\":850:1260   */\n    tag_12:\n        /* \"#utility.yul\":890:897   */\n      0x00\n        /* \"#utility.yul\":913:933   */\n      tag_39\n        /* \"#utility.yul\":931:932   */\n      dup3\n        /* \"#utility.yul\":913:933   */\n      tag_21\n      jump\t// in\n    tag_39:\n        /* \"#utility.yul\":908:933   */\n      swap2\n      pop\n        /* \"#utility.yul\":947:967   */\n      tag_40\n        /* \"#utility.yul\":965:966   */\n      dup4\n        /* \"#utility.yul\":947:967   */\n      tag_21\n      jump\t// in\n    tag_40:\n        /* \"#utility.yul\":942:967   */\n      swap3\n      pop\n        /* \"#utility.yul\":1002:1003   */\n      dup3\n        /* \"#utility.yul\":999:1000   */\n      dup3\n        /* \"#utility.yul\":995:1004   */\n      mul\n        /* \"#utility.yul\":1024:1054   */\n      tag_41\n        /* \"#utility.yul\":1042:1053   */\n      dup2\n        /* \"#utility.yul\":1024:1054   */\n      tag_21\n      jump\t// in\n    tag_41:\n        /* \"#utility.yul\":1013:1054   */\n      swap2\n      pop\n        /* \"#utility.yul\":1203:1204   */\n      dup3\n        /* \"#utility.yul\":1194:1201   */\n      dup3\n        /* \"#utility.yul\":1190:1205   */\n      div\n        /* \"#utility.yul\":1187:1188   */\n      dup5\n        /* \"#utility.yul\":1184:1206   */\n      eq\n        /* \"#utility.yul\":1164:1165   */\n      dup4\n        /* \"#utility.yul\":1157:1166   */\n      iszero\n        /* \"#utility.yul\":1137:1220   */\n      or\n        /* \"#utility.yul\":1114:1253   */\n      tag_42\n      jumpi\n        /* \"#utility.yul\":1233:1251   */\n      tag_43\n      tag_22\n      jump\t// in\n    tag_43:\n        /* \"#utility.yul\":1114:1253   */\n    tag_42:\n        /* \"#utility.yul\":898:1260   */\n      pop\n        /* \"#utility.yul\":850:1260   */\n      swap3\n      swap2\n      pop\n      pop\n      jump\t// out\n        /* \"#utility.yul\":1266:1460   */\n    tag_14:\n        /* \"#utility.yul\":1306:1310   */\n      0x00\n        /* \"#utility.yul\":1326:1346   */\n      tag_45\n        /* \"#utility.yul\":1344:1345   */\n      dup3\n        /* \"#utility.yul\":1326:1346   */\n      tag_21\n      jump\t// in\n    tag_45:\n        /* \"#utility.yul\":1321:1346   */\n      swap2\n      pop\n        /* \"#utility.yul\":1360:1380   */\n      tag_46\n        /* \"#utility.yul\":1378:1379   */\n      dup4\n        /* \"#utility.yul\":1360:1380   */\n      tag_21\n      jump\t// in\n    tag_46:\n        /* \"#utility.yul\":1355:1380   */\n      swap3\n      pop\n        /* \"#utility.yul\":1404:1405   */\n      dup3\n        /* \"#utility.yul\":1401:1402   */\n      dup3\n        /* \"#utility.yul\":1397:1406   */\n      sub\n        /* \"#utility.yul\":1389:1406   */\n      swap1\n      pop\n        /* \"#utility.yul\":1428:1429   */\n      dup2\n        /* \"#utility.yul\":1422:1426   */\n      dup2\n        /* \"#utility.yul\":1419:1430   */\n      gt\n        /* \"#utility.yul\":1416:1453   */\n      iszero\n      tag_47\n      jumpi\n        /* \"#utility.yul\":1433:1451   */\n      tag_48\n      tag_22\n      jump\t// in\n    tag_48:\n        /* \"#utility.yul\":1416:1453   */\n    tag_47:\n        /* \"#utility.yul\":1266:1460   */\n      swap3\n      swap2\n      pop\n      pop\n      jump\t// out\n        /* \"#utility.yul\":1466:1637   */\n    tag_16:\n        /* \"#utility.yul\":1505:1508   */\n      0x00\n        /* \"#utility.yul\":1528:1552   */\n      tag_50\n        /* \"#utility.yul\":1546:1551   */\n      dup3\n        /* \"#utility.yul\":1528:1552   */\n      tag_21\n      jump\t// in\n    tag_50:\n        /* \"#utility.yul\":1519:1552   */\n      swap2\n      pop\n        /* \"#utility.yul\":1574:1578   */\n      0x00\n        /* \"#utility.yul\":1567:1572   */\n      dup3\n        /* \"#utility.yul\":1564:1579   */\n      sub\n        /* \"#utility.yul\":1561:1602   */\n      tag_51\n      jumpi\n        /* \"#utility.yul\":1582:1600   */\n      tag_52\n      tag_22\n      jump\t// in\n    tag_52:\n        /* \"#utility.yul\":1561:1602   */\n    tag_51:\n        /* \"#utility.yul\":1629:1630   */\n      0x01\n        /* \"#utility.yul\":1622:1627   */\n      dup3\n        /* \"#utility.yul\":1618:1631   */\n      sub\n        /* \"#utility.yul\":1611:1631   */\n      swap1\n      pop\n        /* \"#utility.yul\":1466:1637   */\n      swap2\n      swap1\n      pop\n      jump\t// out\n        /* \"#utility.yul\":1643:1876   */\n    tag_18:\n        /* \"#utility.yul\":1682:1685   */\n      0x00\n        /* \"#utility.yul\":1705:1729   */\n      tag_54\n        /* \"#utility.yul\":1723:1728   */\n      dup3\n        /* \"#utility.yul\":1705:1729   */\n      tag_21\n      jump\t// in\n    tag_54:\n        /* \"#utility.yul\":1696:1729   */\n      swap2\n      pop\n        /* \"#utility.yul\":1751:1817   */\n      0xffffffffffffffffffffffffffffffffffffffffffffffffffffffffffffffff\n        /* \"#utility.yul\":1744:1749   */\n      dup3\n        /* \"#utility.yul\":1741:1818   */\n      sub\n        /* \"#utility.yul\":1738:1841   */\n      tag_55\n      jumpi\n        /* \"#utility.yul\":1821:1839   */\n      tag_56\n      tag_22\n      jump\t// in\n    tag_56:\n        /* \"#utility.yul\":1738:1841   */\n    tag_55:\n        /* \"#utility.yul\":1868:1869   */\n      0x01\n        /* \"#utility.yul\":1861:1866   */\n      dup3\n        /* \"#utility.yul\":1857:1870   */\n      add\n        /* \"#utility.yul\":1850:1870   */\n      swap1\n      pop\n        /* \"#utility.yul\":1643:1876   */\n      swap2\n      swap1\n      pop\n      jump\t// out\n        /* \"#utility.yul\":1882:2058   */\n    tag_20:\n        /* \"#utility.yul\":1914:1915   */\n      0x00\n        /* \"#utility.yul\":1931:1951   */\n      tag_58\n        /* \"#utility.yul\":1949:1950   */\n      dup3\n        /* \"#utility.yul\":1931:1951   */\n      tag_21\n      jump\t// in\n    tag_58:\n        /* \"#utility.yul\":1926:1951   */\n      swap2\n      pop\n        /* \"#utility.yul\":1965:1985   */\n      tag_59\n        /* \"#utility.yul\":1983:1984   */\n      dup4\n        /* \"#utility.yul\":1965:1985   */\n      tag_21\n      jump\t// in\n    tag_59:\n        /* \"#utility.yul\":1960:1985   */\n      swap3\n      pop\n        /* \"#utility.yul\":2004:2005   */\n      dup3\n        /* \"#utility.yul\":1994:2029   */\n      tag_60\n      jumpi\n        /* \"#utility.yul\":2009:2027   */\n      tag_61\n      tag_23\n      jump\t// in\n    tag_61:\n        /* \"#utility.yul\":1994:2029   */\n    tag_60:\n        /* \"#utility.yul\":2050:2051   */\n      dup3\n        /* \"#utility.yul\":2047:2048   */\n      dup3\n        /* \"#utility.yul\":2043:2052   */\n      mod\n        /* \"#utility.yul\":2038:2052   */\n      swap1\n      pop\n        /* \"#utility.yul\":1882:2058   */\n      swap3\n      swap2\n      pop\n      pop\n      jump\t// out\n\n    auxdata: 0xa2646970667358221220973181ef92c19de7728f12845b0ce95a874a8a2283d16c01aac68f02de9eb5b264736f6c63430008110033\n}\n",
				"bytecode": {
					"linkReferences": {},
					"object": "6080604052600a600055600760015534801561001a57600080fd5b506102fa8061002a6000396000f3fe608060405234801561001057600080fd5b506004361061002b5760003560e01c8063775fc12714610030575b600080fd5b61003861003a565b005b60076001546100499190610118565b600181905550600760015461005e919061017b565b600181905550600760015461007391906101ac565b600181905550600760015461008891906101ee565b600181905550600160008154809291906100a190610222565b91905055600181905550600160008154809291906100be9061024b565b9190505560018190555060076001546100d79190610293565b600181905550565b6000819050919050565b7f4e487b7100000000000000000000000000000000000000000000000000000000600052601160045260246000fd5b6000610123826100df565b915061012e836100df565b9250828201905080821115610146576101456100e9565b5b92915050565b7f4e487b7100000000000000000000000000000000000000000000000000000000600052601260045260246000fd5b6000610186826100df565b9150610191836100df565b9250826101a1576101a061014c565b5b828204905092915050565b60006101b7826100df565b91506101c2836100df565b92508282026101d0816100df565b915082820484148315176101e7576101e66100e9565b5b5092915050565b60006101f9826100df565b9150610204836100df565b925082820390508181111561021c5761021b6100e9565b5b92915050565b600061022d826100df565b9150600082036102405761023f6100e9565b5b600182039050919050565b6000610256826100df565b91507fffffffffffffffffffffffffffffffffffffffffffffffffffffffffffffffff8203610288576102876100e9565b5b600182019050919050565b600061029e826100df565b91506102a9836100df565b9250826102b9576102b861014c565b5b82820690509291505056fea2646970667358221220973181ef92c19de7728f12845b0ce95a874a8a2283d16c01aac68f02de9eb5b264736f6c63430008110033",
					"opcodes": "PUSH1 0x80 PUSH1 0x40 MSTORE PUSH1 0xA PUSH1 0x0 SSTORE PUSH1 0x7 PUSH1 0x1 SSTORE CALLVALUE DUP1 ISZERO PUSH2 0x1A JUMPI PUSH1 0x0 DUP1 REVERT JUMPDEST POP PUSH2 0x2FA DUP1 PUSH2 0x2A PUSH1 0x0 CODECOPY PUSH1 0x0 RETURN INVALID PUSH1 0x80 PUSH1 0x40 MSTORE CALLVALUE DUP1 ISZERO PUSH2 0x10 JUMPI PUSH1 0x0 DUP1 REVERT JUMPDEST POP PUSH1 0x4 CALLDATASIZE LT PUSH2 0x2B JUMPI PUSH1 0x0 CALLDATALOAD PUSH1 0xE0 SHR DUP1 PUSH4 0x775FC127 EQ PUSH2 0x30 JUMPI JUMPDEST PUSH1 0x0 DUP1 REVERT JUMPDEST PUSH2 0x38 PUSH2 0x3A JUMP JUMPDEST STOP JUMPDEST PUSH1 0x7 PUSH1 0x1 SLOAD PUSH2 0x49 SWAP2 SWAP1 PUSH2 0x118 JUMP JUMPDEST PUSH1 0x1 DUP2 SWAP1 SSTORE POP PUSH1 0x7 PUSH1 0x1 SLOAD PUSH2 0x5E SWAP2 SWAP1 PUSH2 0x17B JUMP JUMPDEST PUSH1 0x1 DUP2 SWAP1 SSTORE POP PUSH1 0x7 PUSH1 0x1 SLOAD PUSH2 0x73 SWAP2 SWAP1 PUSH2 0x1AC JUMP JUMPDEST PUSH1 0x1 DUP2 SWAP1 SSTORE POP PUSH1 0x7 PUSH1 0x1 SLOAD PUSH2 0x88 SWAP2 SWAP1 PUSH2 0x1EE JUMP JUMPDEST PUSH1 0x1 DUP2 SWAP1 SSTORE POP PUSH1 0x1 PUSH1 0x0 DUP2 SLOAD DUP1 SWAP3 SWAP2 SWAP1 PUSH2 0xA1 SWAP1 PUSH2 0x222 JUMP JUMPDEST SWAP2 SWAP1 POP SSTORE PUSH1 0x1 DUP2 SWAP1 SSTORE POP PUSH1 0x1 PUSH1 0x0 DUP2 SLOAD DUP1 SWAP3 SWAP2 SWAP1 PUSH2 0xBE SWAP1 PUSH2 0x24B JUMP JUMPDEST SWAP2 SWAP1 POP SSTORE PUSH1 0x1 DUP2 SWAP1 SSTORE POP PUSH1 0x7 PUSH1 0x1 SLOAD PUSH2 0xD7 SWAP2 SWAP1 PUSH2 0x293 JUMP JUMPDEST PUSH1 0x1 DUP2 SWAP1 SSTORE POP JUMP JUMPDEST PUSH1 0x0 DUP2 SWAP1 POP SWAP2 SWAP1 POP JUMP JUMPDEST PUSH32 0x4E487B7100000000000000000000000000000000000000000000000000000000 PUSH1 0x0 MSTORE PUSH1 0x11 PUSH1 0x4 MSTORE PUSH1 0x24 PUSH1 0x0 REVERT JUMPDEST PUSH1 0x0 PUSH2 0x123 DUP3 PUSH2 0xDF JUMP JUMPDEST SWAP2 POP PUSH2 0x12E DUP4 PUSH2 0xDF JUMP JUMPDEST SWAP3 POP DUP3 DUP3 ADD SWAP1 POP DUP1 DUP3 GT ISZERO PUSH2 0x146 JUMPI PUSH2 0x145 PUSH2 0xE9 JUMP JUMPDEST JUMPDEST SWAP3 SWAP2 POP POP JUMP JUMPDEST PUSH32 0x4E487B7100000000000000000000000000000000000000000000000000000000 PUSH1 0x0 MSTORE PUSH1 0x12 PUSH1 0x4 MSTORE PUSH1 0x24 PUSH1 0x0 REVERT JUMPDEST PUSH1 0x0 PUSH2 0x186 DUP3 PUSH2 0xDF JUMP JUMPDEST SWAP2 POP PUSH2 0x191 DUP4 PUSH2 0xDF JUMP JUMPDEST SWAP3 POP DUP3 PUSH2 0x1A1 JUMPI PUSH2 0x1A0 PUSH2 0x14C JUMP JUMPDEST JUMPDEST DUP3 DUP3 DIV SWAP1 POP SWAP3 SWAP2 POP POP JUMP JUMPDEST PUSH1 0x0 PUSH2 0x1B7 DUP3 PUSH2 0xDF JUMP JUMPDEST SWAP2 POP PUSH2 0x1C2 DUP4 PUSH2 0xDF JUMP JUMPDEST SWAP3 POP DUP3 DUP3 MUL PUSH2 0x1D0 DUP2 PUSH2 0xDF JUMP JUMPDEST SWAP2 POP DUP3 DUP3 DIV DUP5 EQ DUP4 ISZERO OR PUSH2 0x1E7 JUMPI PUSH2 0x1E6 PUSH2 0xE9 JUMP JUMPDEST JUMPDEST POP SWAP3 SWAP2 POP POP JUMP JUMPDEST PUSH1 0x0 PUSH2 0x1F9 DUP3 PUSH2 0xDF JUMP JUMPDEST SWAP2 POP PUSH2 0x204 DUP4 PUSH2 0xDF JUMP JUMPDEST SWAP3 POP DUP3 DUP3 SUB SWAP1 POP DUP2 DUP2 GT ISZERO PUSH2 0x21C JUMPI PUSH2 0x21B PUSH2 0xE9 JUMP JUMPDEST JUMPDEST SWAP3 SWAP2 POP POP JUMP JUMPDEST PUSH1 0x0 PUSH2 0x22D DUP3 PUSH2 0xDF JUMP JUMPDEST SWAP2 POP PUSH1 0x0 DUP3 SUB PUSH2 0x240 JUMPI PUSH2 0x23F PUSH2 0xE9 JUMP JUMPDEST JUMPDEST PUSH1 0x1 DUP3 SUB SWAP1 POP SWAP2 SWAP1 POP JUMP JUMPDEST PUSH1 0x0 PUSH2 0x256 DUP3 PUSH2 0xDF JUMP JUMPDEST SWAP2 POP PUSH32 0xFFFFFFFFFFFFFFFFFFFFFFFFFFFFFFFFFFFFFFFFFFFFFFFFFFFFFFFFFFFFFFFF DUP3 SUB PUSH2 0x288 JUMPI PUSH2 0x287 PUSH2 0xE9 JUMP JUMPDEST JUMPDEST PUSH1 0x1 DUP3 ADD SWAP1 POP SWAP2 SWAP1 POP JUMP JUMPDEST PUSH1 0x0 PUSH2 0x29E DUP3 PUSH2 0xDF JUMP JUMPDEST SWAP2 POP PUSH2 0x2A9 DUP4 PUSH2 0xDF JUMP JUMPDEST SWAP3 POP DUP3 PUSH2 0x2B9 JUMPI PUSH2 0x2B8 PUSH2 0x14C JUMP JUMPDEST JUMPDEST DUP3 DUP3 MOD SWAP1 POP SWAP3 SWAP2 POP POP JUMP INVALID LOG2 PUSH5 0x6970667358 0x22 SLT KECCAK256 SWAP8 BALANCE DUP2 0xEF SWAP3 0xC1 SWAP14 0xE7 PUSH19 0x8F12845B0CE95A874A8A2283D16C01AAC68F02 0xDE SWAP15 0xB5 0xB2 PUSH5 0x736F6C6343 STOP ADDMOD GT STOP CALLER "
				},
				"gasEstimates": {
					"creation": {
						"codeDepositCost": "152400",
						"executionCost": "44408",
						"totalCost": "196808"
					},
					"external": {
						"operation()": "infinite"
					}
				},
				"methodIdentifiers": {
					"operation()": "775fc127"
				}
			},
			"storageLayout": {
				"storage": [
					{
						"astId": 4,
						"contract": "contracts/operators.sol:operators",
						"label": "y",
						"offset": 0,
						"slot": "0",
						"type": "t_int256"
					},
					{
						"astId": 7,
						"contract": "contracts/operators.sol:operators",
						"label": "x",
						"offset": 0,
						"slot": "1",
						"type": "t_uint256"
					}
				],
				"types": {
					"t_int256": {
						"encoding": "inplace",
						"label": "int256",
						"numberOfBytes": "32"
					},
					"t_uint256": {
						"encoding": "inplace",
						"label": "uint256",
						"numberOfBytes": "32"
					}
				}
			},
			"userdoc": {
				"kind": "user",
				"methods": {},
				"version": 1
			}
		}
	}
}